{
  "_format": "hh-sol-artifact-1",
  "contractName": "DigitalInheritance",
  "sourceName": "contracts/DigitalInheritance.sol",
  "abi": [
    {
      "inputs": [
        {
          "internalType": "address",
          "name": "_beneficiary",
          "type": "address"
        }
      ],
      "stateMutability": "nonpayable",
      "type": "constructor"
    },
    {
      "anonymous": false,
      "inputs": [
        {
          "indexed": true,
          "internalType": "address",
          "name": "beneficiary",
          "type": "address"
        },
        {
          "indexed": false,
          "internalType": "uint256",
          "name": "amount",
          "type": "uint256"
        }
      ],
      "name": "Claim",
      "type": "event"
    },
    {
      "anonymous": false,
      "inputs": [
        {
          "indexed": true,
          "internalType": "address",
          "name": "sender",
          "type": "address"
        },
        {
          "indexed": false,
          "internalType": "uint256",
          "name": "amount",
          "type": "uint256"
        }
      ],
      "name": "Deposit",
      "type": "event"
    },
    {
      "anonymous": false,
      "inputs": [
        {
          "indexed": false,
          "internalType": "uint256",
          "name": "timestamp",
          "type": "uint256"
        }
      ],
      "name": "Ping",
      "type": "event"
    },
    {
      "inputs": [],
      "name": "beneficiary",
      "outputs": [
        {
          "internalType": "address",
          "name": "",
          "type": "address"
        }
      ],
      "stateMutability": "view",
      "type": "function"
    },
    {
      "inputs": [],
      "name": "claim",
      "outputs": [],
      "stateMutability": "nonpayable",
      "type": "function"
    },
    {
      "inputs": [],
      "name": "deposit",
      "outputs": [],
      "stateMutability": "payable",
      "type": "function"
    },
    {
      "inputs": [],
      "name": "lastHeartbeat",
      "outputs": [
        {
          "internalType": "uint256",
          "name": "",
          "type": "uint256"
        }
      ],
      "stateMutability": "view",
      "type": "function"
    },
    {
      "inputs": [],
      "name": "owner",
      "outputs": [
        {
          "internalType": "address",
          "name": "",
          "type": "address"
        }
      ],
      "stateMutability": "view",
      "type": "function"
    },
    {
      "inputs": [],
      "name": "ping",
      "outputs": [],
      "stateMutability": "nonpayable",
      "type": "function"
    },
    {
      "inputs": [],
      "name": "timeLimit",
      "outputs": [
        {
          "internalType": "uint256",
          "name": "",
          "type": "uint256"
        }
      ],
      "stateMutability": "view",
      "type": "function"
    }
  ],
  "bytecode": "0x608060405234801561001057600080fd5b50604051610a14380380610a148339818101604052810190610032919061019d565b600073ffffffffffffffffffffffffffffffffffffffff168173ffffffffffffffffffffffffffffffffffffffff16036100a1576040517f08c379a000000000000000000000000000000000000000000000000000000000815260040161009890610227565b60405180910390fd5b336000806101000a81548173ffffffffffffffffffffffffffffffffffffffff021916908373ffffffffffffffffffffffffffffffffffffffff16021790555080600160006101000a81548173ffffffffffffffffffffffffffffffffffffffff021916908373ffffffffffffffffffffffffffffffffffffffff160217905550426002819055506301e1338060038190555050610247565b600080fd5b600073ffffffffffffffffffffffffffffffffffffffff82169050919050565b600061016a8261013f565b9050919050565b61017a8161015f565b811461018557600080fd5b50565b60008151905061019781610171565b92915050565b6000602082840312156101b3576101b261013a565b5b60006101c184828501610188565b91505092915050565b600082825260208201905092915050565b7f496e76616c69642062656e656669636961727920616464726573730000000000600082015250565b6000610211601b836101ca565b915061021c826101db565b602082019050919050565b6000602082019050818103600083015261024081610204565b9050919050565b6107be806102566000396000f3fe6080604052600436106100705760003560e01c806369c1a7121161004e57806369c1a712146100ce5780638da5cb5b146100f9578063c08d1fe514610124578063d0e30db01461014f57610070565b806338af3eed146100755780634e71d92d146100a05780635c36b186146100b7575b600080fd5b34801561008157600080fd5b5061008a610159565b6040516100979190610515565b60405180910390f35b3480156100ac57600080fd5b506100b561017f565b005b3480156100c357600080fd5b506100cc610384565b005b3480156100da57600080fd5b506100e3610454565b6040516100f09190610549565b60405180910390f35b34801561010557600080fd5b5061010e61045a565b60405161011b9190610515565b60405180910390f35b34801561013057600080fd5b5061013961047e565b6040516101469190610549565b60405180910390f35b610157610484565b005b600160009054906101000a900473ffffffffffffffffffffffffffffffffffffffff1681565b600160009054906101000a900473ffffffffffffffffffffffffffffffffffffffff1673ffffffffffffffffffffffffffffffffffffffff163373ffffffffffffffffffffffffffffffffffffffff161461020f576040517f08c379a0000000000000000000000000000000000000000000000000000000008152600401610206906105c1565b60405180910390fd5b60035460025461021f9190610610565b4211610260576040517f08c379a000000000000000000000000000000000000000000000000000000000815260040161025790610690565b60405180910390fd5b6000479050600081116102a8576040517f08c379a000000000000000000000000000000000000000000000000000000000815260040161029f906106fc565b60405180910390fd5b600160009054906101000a900473ffffffffffffffffffffffffffffffffffffffff1673ffffffffffffffffffffffffffffffffffffffff166108fc829081150290604051600060405180830381858888f19350505050158015610310573d6000803e3d6000fd5b50600160009054906101000a900473ffffffffffffffffffffffffffffffffffffffff1673ffffffffffffffffffffffffffffffffffffffff167f47cee97cb7acd717b3c0aa1435d004cd5b3c8c57d70dbceb4e4458bbd60e39d4826040516103799190610549565b60405180910390a250565b60008054906101000a900473ffffffffffffffffffffffffffffffffffffffff1673ffffffffffffffffffffffffffffffffffffffff163373ffffffffffffffffffffffffffffffffffffffff1614610412576040517f08c379a000000000000000000000000000000000000000000000000000000000815260040161040990610768565b60405180910390fd5b426002819055507f48257dc961b6f792c2b78a080dacfed693b660960a702de21cee364e20270e2f60025460405161044a9190610549565b60405180910390a1565b60025481565b60008054906101000a900473ffffffffffffffffffffffffffffffffffffffff1681565b60035481565b3373ffffffffffffffffffffffffffffffffffffffff167fe1fffcc4923d04b559f4d29a8bfc6cda04eb5b0d3c460751c2402c5c5cc9109c346040516104ca9190610549565b60405180910390a2565b600073ffffffffffffffffffffffffffffffffffffffff82169050919050565b60006104ff826104d4565b9050919050565b61050f816104f4565b82525050565b600060208201905061052a6000830184610506565b92915050565b6000819050919050565b61054381610530565b82525050565b600060208201905061055e600083018461053a565b92915050565b600082825260208201905092915050565b7f4f6e6c792062656e65666963696172792063616e2063616c6c20746869730000600082015250565b60006105ab601e83610564565b91506105b682610575565b602082019050919050565b600060208201905081810360008301526105da8161059e565b9050919050565b7f4e487b7100000000000000000000000000000000000000000000000000000000600052601160045260246000fd5b600061061b82610530565b915061062683610530565b925082820190508082111561063e5761063d6105e1565b5b92915050565b7f4f776e6572206973207374696c6c206163746976650000000000000000000000600082015250565b600061067a601583610564565b915061068582610644565b602082019050919050565b600060208201905081810360008301526106a98161066d565b9050919050565b7f4e6f2066756e647320746f20636c61696d000000000000000000000000000000600082015250565b60006106e6601183610564565b91506106f1826106b0565b602082019050919050565b60006020820190508181036000830152610715816106d9565b9050919050565b7f4f6e6c79206f776e65722063616e2063616c6c20746869730000000000000000600082015250565b6000610752601883610564565b915061075d8261071c565b602082019050919050565b6000602082019050818103600083015261078181610745565b905091905056fea2646970667358221220bb0d36906ba54a50971a0570229a2ec3412b8c4bed1534a35bd5119ac9fa4f1f64736f6c63430008180033",
  "linkReferences": {},
  "deployedLinkReferences": {}
}